:100000000C9434000C943E000C943E000C943E0082
:100010000C943E000C943E000C943E000C943E0068
:100020000C943E000C943E000C943E000C943E0058
:100030000C943E000C943E000C943E000C943E0048
:100040000C943E000C943E000C943E000C943E0038
:100050000C943E000C943E000C943E000C943E0028
:100060000C943E000C943E0011241FBECFEFD8E04C
:10007000DEBFCDBF0E9440000C9459000C940000DC
:100080008FEF84B915B824E130E085B1809585B94A
:100090004FEF81EE94E0415080409040E1F700C086
:1000A00000002150310989F715B814B880E090E0BC
:0600B0000895F894FFCF53
:00000001FF
