:107C00000C94343E0C94493E0C94493E0C94493EED
:107C10000C94493E0C94493E0C94493E0C94493EC8
:107C20000C94493E0C94493E0C94493E0C94493EB8
:107C30000C94493E0C94493E0C94493E0C94493EA8
:107C40000C94493E0C94493E0C94493E0C94493E98
:107C50000C94493E0C94493E0C94493E0C94493E88
:107C60000C94493E0C94493E11241FBECFEFD8E03E
:107C7000DEBFCDBF11E0A0E0B1E0E0E7FDE702C06C
:107C800005900D92A43BB107D9F70E948E3E0C944B
:107C9000B63E0C94003EFF920F931F93CF93DF9359
:107CA000CFB7F894F999FECF8B0123E0FB01209325
:107CB0005700E89507B600FCFDCF9A0120583F4FCA
:107CC000DA01D1E0A8014A1B5B0BFC90FA01EA0F34
:107CD000FB1F11961C911197012F10E0102F002708
:107CE0000F0D111D0801D0935700E895112412962D
:107CF000A217B30751F725E0FB0120935700E89541
:107D000007B600FCFDCF81E180935700E895CFBF17
:107D1000DF91CF911F910F91FF9008958FEF84B95C
:107D200084E690E02FEF25B93FEF49E658E1315066
:107D300040405040E1F700C0000015B83FEF49E671
:107D400058E1315040405040E1F700C00000019739
:107D500051F714B840E051E060E070E0CB010E94C0
:107D60004B3E0C94000080E090E00895F894FFCF23
:107D70000C9434000C943E000C943E000C943E0095
:107D80000C943E000C943E000C943E000C943E007B
:107D90000C943E000C943E000C943E000C943E006B
:107DA0000C943E000C943E000C943E000C943E005B
:107DB0000C943E000C943E000C943E000C943E004B
:107DC0000C943E000C943E000C943E000C943E003B
:107DD0000C943E000C943E0011241FBECFEFD8E05F
:107DE000DEBFCDBF0E9440000C9458000C940000F0
:107DF0008FEF84B915B885B92FEF33ED90E321509B
:107E000030409040E1F700C0000015B82FEF33ED8F
:107E100090E3215030409040E1F700C00000EBCFEC
:047E2000F894FFCF04
:0400000300007C007D
:00000001FF
