S0120000537069646579426F6F742E7372656310
S1137C000C94343E0C94463E0C94463E0C94463EF2
S1137C100C94463E0C94463E0C94463E0C94463ED0
S1137C200C94463E0C94463E0C94463E0C94463EC0
S1137C300C94463E0C94463E0C94463E0C94463EB0
S1137C400C94463E0C94463E0C94463E0C94463EA0
S1137C500C94463E0C94463E0C94463E0C94463E90
S1137C600C94463E0C94463E11241FBECFEFD8E040
S1137C70DEBFCDBF22E0A0E0B1E001C01D92A03084
S1137C80B207E1F70E942C3F0C94413F0C94003E54
S1137C9088E98093C10086E08093C20088E08093E5
S1137CA0C40008959091C00095FFFCCF8093C60056
S1137CB008958091C00087FFFCCF8091C60008958D
S1137CC01F93CF93DF934FB7F894F999FECF23E036
S1137CD0FC0120935700E89507B600FCFDCFEB01AB
S1137CE0C058DF4FDB0151E0BC016A1B7B0B1C91C8
S1137CF0FB01EA0FFB1F11962C91119730E0322FF4
S1137D002227210F311D090150935700E8951124B2
S1137D101296CA17DB0759F725E0FC012093570098
S1137D20E89507B600FCFDCF81E180935700E89504
S1137D304FBFDF91CF911F9108959FE088E10FB667
S1137D40F894A895809360000FBE90936000C0E003
S1137D50D0E091E2D92E0E94593E813029F40E944C
S1137D60593E8031C1F747C0873091F40E94593E93
S1137D70803189F700E010E0F801D0925700849137
S1137D800E94523E0E5F1F4F06301105A9F733C003
S1137D90853061F40E94593E8031E9F60E94593ED3
S1137DA0C82F0E94593ED0E0D82B25C0823039F527
S1137DB00E94593E803179F60E94593E082F0E9454
S1137DC0593E10E0182B80E0E82E81E0F82EC70120
S1137DD0805091408017910730F40E94593EF7017A
S1137DE081937F01F4CF83E00E94523E60E071E012
S1137DF0CE010E94603E86E00E94523EACCF8430A9
S1137E0009F0A9CF0E94593E803109F0A4CF86E041
S1137E100E94523E98E088E10FB6F894A8958093AA
S1137E2060000FBE90936000FFCF0E94483E8FEF2A
S1137E3084B985E095B1909595B92FEF30E792E03C
S1137E40215030409040E1F700C00000815091F78C
S1137E5015B814B80E949D3E84B714BE0FB6F894AA
S1137E60A8959091600098619093600010926000D2
S1137E700FBE81FD0E94153F0C94000080E090E04D
S1097E800895F894FFCF01
S9037C0080
