:100000000C9434000C9446000C9446000C9446006A
:100010000C9446000C9446000C9446000C94460048
:100020000C9446000C9446000C9446000C94460038
:100030000C9446000C9446000C9446000C94460028
:100040000C9446000C9446000C9446000C94460018
:100050000C9446000C9446000C9446000C94460008
:100060000C9446000C94460011241FBECFEFD8E03C
:10007000DEBFCDBF22E0A0E0B1E001C01D92A03004
:10008000B207E1F70E9422010C9437010C940000A2
:1000900088E98093C10086E08093C20088E0809365
:1000A000C4000895E0ECF0E0908195FFFDCF8093CF
:1000B000C6000895E0ECF0E080818823ECF78091A1
:1000C000C6000895FF920F931F93CF93DF93EC0127
:1000D000FFB6F894F999FECF83E0FE0180935700B4
:1000E000E89507B600FCFDCF8B0100581F4FDB01E0
:1000F00081E0AE01461B570B9C91FA01EA0FFB1FF2
:1001000011962C91119730E0322F2227290F311DA3
:10011000090180935700E89511241296A017B107A2
:1001200059F785E0FE0180935700E89507B600FC7B
:10013000FDCF81E180935700E895FFBEDF91CF911D
:100140001F910F91FF9008959FE088E10FB6F894FA
:10015000A895809360000FBE90936000E12CF12C75
:100160000E945A00813041F40E945A008930C1F740
:1001700086E00E945200F4CF853089F40E945A0034
:10018000893071F70E945A00C82F0E945A002C2F04
:1001900030E07901F82A86E00E945200E1CF8230F7
:1001A00021F50E945A008930D9F60E945A00082F82
:1001B0000E945A0010E0182B0115110551F0C0E003
:1001C000D1E000501F4F0E945A008993C017D107F9
:1001D000D1F783E00E94520060E071E0C7010E9405
:1001E000620086E00E945200BBCF843009F0B8CF95
:1001F0000E945A00893009F0B3CF86E00E94520075
:1002000098E088E10FB6F894A895809360000FBE3F
:1002100090936000FFCF0E9448008FEF84B994E173
:1002200085B1809585B92FEF30E782E021503040CD
:100230008040E1F700C00000915091F715B814B864
:100240000E94A40084B714BE0FB6F894A8959091AC
:100250006000986190936000109260000FBE81FD75
:100260000E940B010C94000080E090E00895F89447
:02027000FFCFBE
:00000001FF
