:107C00000C94343E0C94463E0C94463E0C94463EF6
:107C10000C94463E0C94463E0C94463E0C94463ED4
:107C20000C94463E0C94463E0C94463E0C94463EC4
:107C30000C94463E0C94463E0C94463E0C94463EB4
:107C40000C94463E0C94463E0C94463E0C94463EA4
:107C50000C94463E0C94463E0C94463E0C94463E94
:107C60000C94463E0C94463E11241FBECFEFD8E044
:107C7000DEBFCDBF22E0A0E0B1E001C01D92A03088
:107C8000B207E1F70E944D3F0C94623F0C94003E16
:107C90009091C00095FFFCCF8093C600089580911D
:107CA000C00087FFFCCF8091C600089582E08093DA
:107CB000C00088E18093C10086E08093C20080E12B
:107CC0008093C40008951F93CF93DF934FB7F89428
:107CD000F999FECF23E0FC0120935700E89507B601
:107CE00000FCFDCFEB01C058DF4FDB0151E0BC01D0
:107CF0006A1B7B0B1C91FB01EA0FFB1F11962C9159
:107D0000119730E0322F2227210F311D09015093A6
:107D10005700E89511241296CA17DB0759F725E09A
:107D2000FC0120935700E89507B600FCFDCF81E1E8
:107D300080935700E8954FBFDF91CF911F91089531
:107D40009FE088E10FB6F894A895809360000FBE7D
:107D500090936000C0E0D0E091E2D92E0E944F3EA7
:107D6000813029F40E944F3E8031C1F765C08730D1
:107D700091F40E944F3E803189F700E010E0F80155
:107D8000D092570084910E94483E0E5F1F4F0630EC
:107D90001105A9F751C0853061F40E944F3E803132
:107DA000E9F60E944F3EC82F0E944F3ED0E0D82BEC
:107DB00043C0823021F50E944F3E803179F60E9407
:107DC0004F3E082F0E944F3E10E0182B80E0E82E17
:107DD00081E0F82EC701805091408017910730F460
:107DE0000E944F3EF70181937F01F4CF83E00E9410
:107DF000483E60E071E0CE010E94633E1DC08930C4
:107E0000F9F40E944F3E803109F0A8CF0E944F3E06
:107E1000082F0E944F3E10E0182BE12CF12CE016A9
:107E2000F10651F0FE01EE0DFF1D84910E94483EC7
:107E3000FFEFEF1AFF0AF3CF86E00E94483E8ECF95
:107E4000843009F08BCF0E944F3E803109F086CFFD
:107E500086E00E94483E98E088E10FB6F894A89525
:107E6000809360000FBE90936000FFCF0E94563E4B
:107E70008FEF84B985E095B1909595B92FE731E002
:107E800096E0215030409040E1F700C00000815062
:107E900091F715B814B80E94A03E84B714BE0FB66F
:107EA000F894A8959091600098619093600010926A
:107EB00060000FBE81FD0E94363F0C94000080E000
:087EC00090E00895F894FFCF53
:0400000300007C007D
:00000001FF
