S01300005370696465792E426F6F742E73726563E1
S1137C000C94343E0C94463E0C94463E0C94463EF2
S1137C100C94463E0C94463E0C94463E0C94463ED0
S1137C200C94463E0C94463E0C94463E0C94463EC0
S1137C300C94463E0C94463E0C94463E0C94463EB0
S1137C400C94463E0C94463E0C94463E0C94463EA0
S1137C500C94463E0C94463E0C94463E0C94463E90
S1137C600C94463E0C94463E11241FBECFEFD8E040
S1137C70DEBFCDBF22E0A0E0B1E001C01D92A03084
S1137C80B207E1F70E94163F0C942B3F0C94003E80
S1137C9088E98093C10086E08093C20088E08093E5
S1137CA0C40008959091C00095FFFCCF8093C60056
S1137CB008958091C00087FFFCCF8091C60008958D
S1137CC01F93CF93DF934FB7F894F999FECF23E036
S1137CD0FC0120935700E89507B600FCFDCFEB01AB
S1137CE0C058DF4FDB0151E0BC016A1B7B0B1C91C8
S1137CF0FB01EA0FFB1F11962C91119730E0322FF4
S1137D002227210F311D090150935700E8951124B2
S1137D101296CA17DB0759F725E0FC012093570098
S1137D20E89507B600FCFDCF81E180935700E89504
S1137D304FBFDF91CF911F9108959FE088E10FB667
S1137D40F894A895809360000FBE90936000C0E003
S1137D50D0E00E94593E813029F40E94593E893076
S1137D60C1F70DC0853079F40E94593E893089F7F6
S1137D700E94593EC82F0E94593ED0E0D82B86E07D
S1137D800E94523EE6CF823021F50E94593E89304E
S1137D9001F70E94593E082F0E94593E10E0182B0B
S1137DA080E0E82E81E0F82EC701805091408017D2
S1137DB0910730F40E94593EF70181937F01F4CF7B
S1137DC083E00E94523E60E071E0CE010E94603E7A
S1137DD0D6CF843009F0BDCF0E94593E893009F0D6
S1137DE0B8CF86E00E94523E98E088E10FB6F8943E
S1137DF0A895809360000FBE90936000FFCF0E940F
S1137E00483E8FEF84B984E195B1909595B92FEFF1
S1137E1030E792E0215030409040E1F700C000008C
S1137E20815091F715B814B80E949D3E84B714BED2
S1137E300FB6F894A89590916000986190936000B3
S1137E40109260000FBE81FD0E94FF3E0C94000062
S10D7E5080E090E00895F894FFCF5D
S9037C0080
